S00E0000584F47616D652E73726563F5
S113000071C0000081C000007FC000007DC00000FE
S11300107BC0000079C0000077C0000075C00000FC
S113002073C0000071C000006FC000006DC000000C
S11300306BC0000069C0000067C0000065C000001C
S113004063C0000061C000005FC000005DC000002C
S11300505BC0000059C0000057C0000055C000003C
S113006053C0000051C000004FC000004DC000004C
S11300704BC0000049C0000047C0000045C000005C
S113008043C0000041C000003FC000003DC000006C
S11300903BC0000039C0000037C0000035C000007C
S11300A033C0000031C000002FC000002DC000008C
S11300B02BC0000029C0000027C0000025C000009C
S11300C023C0000021C000001FC000001DC00000AC
S11300D01BC0000019C0000017C0000015C00000BC
S11300E013C0000011241FBECFEFD1E2DEBFCDBF8D
S11300F000E00CBF22E0A0E0B2E001C01D92A031FC
S1130100B207E1F732D34CC37BCF10920A02E1E08D
S1130110F2E08EE280838183828383838483858378
S113012086838783808710920F0210920E021092AA
S11301300C0210920B02089580910E0290910F020E
S1130140009739F0019790930F0280930E0280E09C
S1130150089581E0089580910E0290910F028230FB
S1130160910539F0019690930F0280930E0280E07E
S1130170089581E0089580910B0290910C020097FC
S113018039F0019790930C0280930B0280E008955C
S113019081E0089580910B0290910C0282309105C8
S11301A039F0019690930C0280930B0280E008953D
S11301B081E00895E1E0F2E08081318183130BC096
S11301C090910302891307C0883729F410920D0215
S11301D081E090E00895E1E0F2E023819481291325
S11301E00CC040910602241308C0283731F481E082
S11301F080930D0281E090E00895E1E0F2E0468111
S1130200678146130CC050910902451308C0483752
S113021031F482E080930D0281E090E0089583132D
S11302200BC050910302851307C08F3629F4109236
S11302300D0282E090E0089529130CC0509106024B
S1130240251308C02F3631F481E080930D0282E03B
S113025090E0089546130CC050910902451308C05C
S11302604F3631F482E080930D0282E090E00895ED
S113027082130AC0841308C0883731F483E0809362
S11302800D0281E090E0089539130AC0361308C0C6
S1130290383731F484E080930D0281E090E00895D2
S11302A0E1E0F2E05281758157130CC0E09109023C
S11302B05E1308C0583731F485E080930D0281E065
S11302C090E00895891313C0E09109028E130FC0C2
S11302D0883709F068C086E080930D0281E090E0E1
S11302E0089586E080930D0282E090E008958213E1
S11302F00AC0841308C08F3631F483E080930D0262
S113030082E090E0089539130AC0361308C03F36DE
S113031031F484E080930D0282E090E00895571355
S11303200CC080910902581308C05F3631F485E08F
S113033080930D0282E090E00895951729F083E000
S113034092E04CE052E019C09413F9CF983731F49D
S113035087E080930D0281E090E008959F3679F75D
S113036087E080930D0282E090E008952C912E3274
S113037089F003968417950781F0DC01FC0132971C
S113038020812E3269F0319620812E3279F780E077
S113039090E0089580E090E0089583E090E008956F
S11303A080E090E008958F3609F0A1CF9ACF809134
S11303B00B0290910C0220910E0230910F02FC016D
S11303C0EE0FFF1FE80FF91FE20FF31FEF5FFD4F62
S11303D040814E32C1F440910A02411102C058E7F3
S11303E001C05FE6BC01660F771F860F971F820F5F
S11303F0931FFC01EF5FFD4F508381E0841B8093CA
S11304000A0280E0089581E00895CF92DF92EF928E
S1130410FF920F931F93CF93DF938091000281117A
S11304209BC148990FC088DE882361F0A09A2FE30E
S11304303DE083E0215030408040E1F700C00000FF
S113044084B314BA49990FC086DE882361F0A09A58
S11304509FE32DE033E0915020403040E1F700C0AD
S1130460000084B314BA4A990FC085DE882361F072
S1130470A09A8FE39DE023E0815090402040E1F773
S113048000C0000084B314BA4B990FC083DE8823E4
S113049061F0A09A3FE38DE093E0315080409040BA
S11304A0E1F700C0000084B314BA4F994CC17FDF58
S11304B0882309F448C1A09A2FE33DE083E021504A
S11304C030408040E1F700C0000084B314BA3BC15F
S11304D06D916837B1F42230310529F482309105E9
S11304E011F4109A29C018B1BA01680F791F6F016D
S11304F002C0CC0CDD1C6A95E2F7B601612B68B929
S113050017C06F36A9F42230310529F482309105E1
S113051011F4119A11C015B1BA01680F791F7F0146
S113052002C0EE0CFF1C6A95E2F7B701612B65B9B6
S113053001968330910561F62F5F3F4F4D5F5F4F0A
S11305402330310531F0DA01AF5FBD4F8D2F9C2F81
S1130550BFCF10920B01129820910B0230910C0224
S11305602230310541F480910E0290910F020297DE
S113057011F4129A17C0EBE0F1E06081C901880F11
S1130580991F280F391F40910E0250910F02240F1A
S1130590351F81E090E002C0880F991F2A95E2F789
S11305A0862B808380910A02882319F0139A179866
S11305B002C0179A1398FEDD80930002882309F481
S11305C0CBC015B818B812B8809100029FEF980FED
S11305D0923008F09EC0813011F02FE601C028E768
S11305E0E1E0F2E08EE280838183828383838483EB
S11305F08583868387838087E0910D02E33070F4DE
S11306008E2F90E0FC01EE0FFF1F8E0F9F1FFC0149
S1130610EF5FFD4F22832183208310C0E63038F43E
S1130620F0E0E250FE4F26832383208307C0E630A8
S113063061F4E1E0F2E0208724832083F12C00E0E0
S1130640C1E0D0E01F2DB02F06C0E1E0F2E0268328
S113065024832283F3CF6F2D702F4F2D502F3BC057
S113066021912837B1F44230510529F482309105A3
S113067011F4109A29C0A8B19B01280F391F6E01EB
S113068002C0CC0CDD1C2A95E2F796012A2B28B96E
S113069017C02F36A9F44230510529F48230910550
S11306A011F4119A11C0A5B19B01280F391F6E01D5
S11306B002C0CC0CDD1C2A95E2F796012A2B25B941
S11306C001968330910561F64F5F5F4F6D5F7F4FF9
S11306D04330510531F0FB01EF5FFD4F812F9B2F1C
S11306E0BFCFA09A2FE332E48FE021503040804006
S11306F0E1F700C0000014BA15B818B812B89FE3A7
S113070022E43FE0915020403040E1F700C0000077
S1130710A2CFEBE0F1E08FEF8083129A9FE32DE00C
S113072033E0915020403040E1F700C000001082D7
S113073012B89FE32DE033E0915020403040E1F7C0
S113074000C00000E9CF40E050E020E030E0D0E01D
S1130750C0E0E1E0F0E0F7CEDF91CF911F910F917F
S1130760FF90EF90DF90CF9008958AB180678AB9A7
S11307708BB18F688BB98FEF87B984B991B19F78AA
S113078091B980930A01C1DC989A3FDE2FED83E989
S113079094E0215080409040E1F700C00000F5CF84
S10707A0F894FFCFF7
S9030000FC
